:020000040800F2
:1000000000400020B16500089D1500089F150008FC
:1000100000000000000000000000000000000000E0
:10002000000000000000000000000000A115000812
:100030000000000000000000A3150008A51500083E
:100040000166000800000000016600080166000863
:1000500001660008AD150008BD150008016600081E
:100060000000000001660008016600080166000843
:100070000166000801660008016600080000000033
:1000800001660008016600080166000801660008B4
:1000900001660008016600080166000801660008A4
:1000A000016600080166000801660008C91500081D
:1000B000016600080166000800000000D91500086C
:1000C0000448054B10B5834203D0044B002B00D0ED
:1000D000984710BDE0010020E00100200000000072
:1000E00006480749091A8B10C90FC91810B54910DD
:1000F00003D0044B002B00D0984710BDE001002036
:10010000E00100200000000010B5074C2378002B10
:1001100009D1FFF7D5FF054B002B02D0044800E0C2
:1001200000BF0123237010BDE0010020000000008B
:1001300004660008054B10B5002B03D004490548A0
:1001400000E000BFFFF7CCFF10BDC046000000007C
:10015000E40100200466000870B50C4D0C4E761BBF
:10016000B61005D0002408CD01349847A642FAD134
:1001700006F048FA074D084E761BB61005D000244D
:1001800008CD01349847A642FAD170BD74670008C3
:10019000746700087467000878670008F0B5050008
:1001A00083074AD0541E002A44D0CEB20300032253
:1001B00002E00135013C3DD301332E701342F8D1EA
:1001C000032C2FD9FF220A40150215432A04154398
:1001D0000F2C35D92700103F3F093E01B4461E00C1
:1001E0001A0010366644156055609560D56010326F
:1001F000B242F8D10F260C2201373F012640DB190D
:100200003700224217D03E1FB608B400A4461A0099
:100210001C1D644420C2A242FCD103240136B60056
:100220009B193C40002C05D0C9B21C191970013330
:100230009C42FBD1F0BD3400F4E714000300BFE79B
:100240002700E0E70CB400B59DB002910691094982
:100250001EAB07910491084904CB059102A90193B3
:1002600000F01EF90023029A13701DB008BC02B002
:100270001847C046FFFFFF7F0802FFFF0EB400B51E
:100280000B499CB0079104910A491DAB05910A499D
:1002900004CB02900690086802A9019300F000F9CF
:1002A0000023029A13701CB008BC03B01847C04664
:1002B000FFFFFF7F0802FFFF00000020F0B5464669
:1002C0004F46D646C0B58E6881460C0090461D004C
:1002D00008689E4239D890228B89D200134211D1EE
:1002E00035002A00414600F0A9FCA36800209E1BAF
:1002F0002368A6609C46654425601CBC90469946D0
:10030000A246F0BD0969421A92466269681C57000C
:10031000BF18FA0FD7197F1050443A00B84201D9DC
:10032000070002005B0512D51100484600F03AFDB7
:10033000061E1FD05246216900F02CFCA389124AE8
:10034000134080221343A38106E01E00C9E74846FC
:1003500000F08EFD061E09D0300053465044676100
:10036000FF1A266120602E00A760BAE7216948467F
:1003700000F0C2FC0C234A46136040220120A389EE
:1003800040421343A381B8E77FFBFFFFF0B54E4621
:100390004546DE465746E0B5936883B001900D00B0
:1003A0009146002B6BD0176808688C6844E0902257
:1003B000AB89D20013422ED02969421A934668694C
:1003C00042001218D00F8218701C521058449046E8
:1003D000904201D9804602008020C000034237D0FD
:1003E0001100019800F0DEFC041E53D05A46296922
:1003F00000F0D0FBAB89294A134080221343AB8124
:10040000434620005A462C61B046340058446B6184
:100410009B1A2860AB604246514600F00FFCAB6867
:100420001C1B2B68AC6043442B6018004B469B6838
:100430009E1B4B469E6022D03B687E689A460837DA
:10044000A046002EF8D0A642B1D23400B046E2E772
:10045000019800F00DFD041ED2D1019C29692000F5
:1004600000F04AFC0C2323604022AB890120134397
:10047000AB814A46002340429360536003E000236F
:100480004A460020536003B03CBC90469946A246C1
:10049000AB46F0BD0C23019A1360E5E77FFBFFFF3D
:1004A000F0B54E46DE4657464546E0B5A1B004904D
:1004B00003911C008B8991461B0604D50B6905939B
:1004C000002B00D119E1002308AD6B6120336B765E
:1004D0001033AB762F3B98464B461B780794924FD0
:1004E000002B00D186E0252B00D104E14E4603E02D
:1004F000252B00D18BE026007378741C002BF7D1DC
:100500004B46E31A9A4675D053464A4603990498D7
:10051000FFF7D4FE431C6DD06B6953446B61737855
:10052000002B67D00122002352426A60443201341A
:100530002B60EB60AB60AB54AB6506E04346C01B81
:10054000834034002A6813432B6021780522380049
:1005500000F0E0FA661C0028F0D12B68B246DA06FB
:1005600002D543222021A9541A0702D543222B2168
:10057000A95421782A2950D1079A111D1268079190
:10058000002A00DA9AE0EA606178A61C2E295CD085
:10059000664B03221800994600F0BCFA002800D1EF
:1005A00071E04B46C01A402383402A6831781343D8
:1005B0002B600622731C5E489946297600F0AAFA41
:1005C00000286AD05B4B002B00D170E007AB009392
:1005D000039A594B2900049800E000BF83465B460C
:1005E000013307D06B695B446B614B461B78002B72
:1005F00000D078E7039B9B895B0600D58CE0686997
:1006000021B03CBC90469946A246AB46F0BD4B4655
:10061000E31A9A4600D185E776E70A00303AA24607
:10062000092AB3D8EB68180001E0340001368300D2
:100630001B1831785B0098180A00303A092AF4D95F
:10064000B246E860A61C2E29A2D1534659782A2921
:100650003AD1079B1A1D079252469178D61C022266
:1006600094461B68E2446B60002B00DB90E701239B
:100670005B426B602D4B03221800994600F04AFA4A
:10068000002800D08DE7B14656463178062228482A
:10069000297600F03FFA002894D107AB0093039A23
:1006A000254B2900049800F0E1F8834697E70722DC
:1006B000079B073393430833079393E75242EA605B
:1006C000022213432B605FE70A000023303A6B607D
:1006D0001800092A01D91CE01E0083001B1871783C
:1006E0005B0098180A00303A731C092AF4D99A461C
:1006F000023668604CE74C4614E7402100F052FB9C
:10070000039B18601861002809D04023039A5361A5
:10071000D9E6B24601363BE70120404270E70C23A0
:10072000049A013813606BE73867000840670008D7
:100730004467000800000000BD020008F0B54F4605
:100740004646D646C0B51F00089B914698468A6823
:100750000B6906000C00934200DA13004A4613604E
:100760004322A25C002A02D04A4601331360236868
:100770009A065AD54B461B6806209A1C4B461A60AF
:1007800023681900184208D1E16800258A1A192146
:100790008A461900A244002A3FDC4323E35C5A1E28
:1007A00093418A060AD53020E1184331087045216B
:1007B0005A1C615CA21843320233117022003900C6
:1007C00043323000C047431C19D006232068A2687A
:1007D00021690340042B30D08A423ADD0023994638
:1007E000521A91441A34002502E001354D4530DAA1
:1007F0000123220039003000C047431CF5D10120FD
:1008000040421CBC90469946A246F0BD4B46E26869
:100810001B680135D31AAB4220DD01235246390053
:100820003000C047431CF1D1E9E706221A4212D03A
:100830004323E35C5A1E9341C0E74B46E0681B68C4
:10084000C31AD843C017184081468A42C8DC002B1F
:10085000C8DC0020D5E74A46126895E743232168A3
:10086000E35C5A1E93418A069DD4A7E7F0B557462C
:100870009A4643239C464E464546DE468C44634694
:10088000E0B587B003930B7E914680460C00109A2A
:100890006E2B00D1D8E000D871E0732B00D11AE1A3
:1008A00000D881E0752B00D1FFE0782B00D00BE160
:1008B0000B6878204521605494498B46116840C9E3
:1008C0001160180603D4580601D53604360CDA0731
:1008D00002D52022134323601027002E00D1C2E04E
:1008E00043230022E2546368A360002B00DAC5E0D2
:1008F0000422216891432160002E00D083E0002B68
:1009000000D0BDE0039D082F00D18CE0039B5B1B52
:100910002361534605AA009321004B464046FFF74A
:100920000DFF431C22D023692A0049464046D04788
:10093000431C1BD022680598E368920700D47FE02F
:100940001A1A002A00DC7BE026000025193606E092
:10095000E368059801351A1AAA4200DC70E0012309
:10096000320049464046D047431CF1D10120404265
:1009700007B03CBC90469946A246AB46F0BD632BFF
:1009800000D184E01FD8002B69D0582B00D09BE009
:10099000452163545E4923688B46116840C9116044
:1009A000180600D48FE792E76F2B7ED0702B00D013
:1009B0008AE02023096878200B4345212360605496
:1009C00052498B467AE7642B01D0692B7CD11168A0
:1009D0002368081D10601D064AD50A681600002A03
:1009E00003DB4B4B0A279B467DE743222D21A15475
:1009F00062687642A260002A02DB042293432360ED
:100A0000434B0A279B46039D00E006003900300057
:100A100000F00AFB5B465B5C013D2B70BE42F4D2EA
:100A2000082F00D072E72368DB0700D46EE7636805
:100A30002269934200DD69E73023013D2B7065E7B1
:100A4000984295DA180093E7136809681D1D6069DC
:100A500015601B680E0601D449064BD418600023AC
:100A6000039D236155E7202322689A43226037E7DC
:100A70005D06B2D500228E5E3200B0E7002EC2D1F4
:100A80005B4625001A7842234235E2543BE713685F
:100A90002500191D11601A684223E254413B42357A
:100AA000236143230022E25433E7116820680D1DBF
:100AB0001560060601D440061ED40E686F2B1DD0AB
:100AC000134B0A279B460BE742222500A354012320
:100AD00042352361E5E71368191D11601D686268DE
:100AE0000021280000F016F800280BD0401B6060A1
:100AF0002061D6E71880B2E70E88DFE7044B0827AD
:100B00009B46EDE660682061CBE7C0466067000861
:100B10004C67000870B5CDB2830734D0531E002A4D
:100B20001BD00278AA4219D0032404E0013B14D35D
:100B30000278AA4212D001302042F7D1032B0ED8FE
:100B4000002B0AD00278AA4208D0C31802E002782B
:100B5000AA4203D001308342F9D1002070BDFF22A8
:100B60000C06240C114021430C04084E0C4302686F
:100B700007496240511891433142E3D1043B0430AC
:100B8000032BF4D8DCE71300D8E7C04680808080D0
:100B9000FFFEFEFEF0B5C64600B50F2A43D90B0096
:100BA000032603431E400C000300002E40D1150015
:100BB000103D2D09AC462D01A846804400E03B00C5
:100BC000676825685F60E7681D60DF601F00A568D3
:100BD00010379D6010344345F1D165460F230C2436
:100BE00001352D01491913404519144223D08C5960
:100BF000AC5104369C1B032CF9D80324043B9B08FE
:100C000001339B002240ED18C918561E002A07D058
:100C1000002300E02300CA5C5C1CEA549E42F9D128
:100C200004BC9046F0BD0500561E002AF0D1F7E73F
:100C3000561E0500ECE71A00F6E7C046F0B5C646BA
:100C400000B588420CD98B18984209D2531E002A4D
:100C500003D0CA5CC254013BFBD204BC9046F0BD39
:100C60000F2A0CD80500561E002AF6D0002300E0FB
:100C70002300CA5C5C1CEA549E42F9D1EDE70B00EC
:100C8000032603431E400C000300002E2ED1150046
:100C9000103D2D09AC462D01A846804400E02B00F4
:100CA0001D00276810351F6067685F60A7689F6038
:100CB000E7681034DF604345F1D165460F230C240B
:100CC00001352D01491913404519144211D08C5991
:100CD000AC5104369C1B032CF9D80324043B9B081D
:100CE00001339B00ED18C9182240BCE7561E0500D1
:100CF000BCE71A00B7E7C04670B50500002915D05B
:100D00000C1F2368002B27DB280000F0EBF8244B96
:100D10001A68002A05D0A2420CD9216860188242C4
:100D200024D0626028001C6000F0DEF870BDA34291
:100D300003D81A005368002BF9D111685018A0424B
:100D40001BD027D821686018834207D063605460A5
:100D5000280000F0C9F8E9E7E418D5E718685B68EF
:100D600084466144216063605460F1E71068526812
:100D70008446614421606260D4E7206809185018F5
:100D800011608342E4D118685B6884466144116055
:100D90005360DDE70C2328002B6000F0A5F8C5E7C1
:100DA000FC010020F8B50323CD1C9D430835060047
:100DB0000C2D2AD20C25A94229D8300000F092F837
:100DC0002A4F3A68002A0AD013685B1B04D441E01A
:100DD00023685B1B1FD522005468002CF8D17B6868
:100DE000002B3DD02900300000F06AF8431C2AD0C7
:100DF0000323C41C9C43A04205D0211A300000F0FC
:100E00005FF8431C1FD0256010E0002DD3DA0C23BF
:100E100000203360F8BD0B2B05D86368A2421DD0BB
:100E2000536003E014002360E4182560300000F0F4
:100E30005BF8200007220B30231D9043C21AE9D033
:100E40001B1AA350E6E70C233000336000F04CF887
:100E50000020DFE70B2BE5D8140053683B60E5E783
:100E60000021300000F02CF87860BBE7FC01002086
:100E7000F8B507000C00150000291BD0002A15D07A
:100E800000F034F82600A84201D33000F8BD290054
:100E90003800FFF787FF061EF7D021002A00FFF772
:100EA00079FE21003800FFF727FFEEE7FFF724FF68
:100EB0000026EAE71100FFF775FF0600E5E7C046E8
:100EC000002370B5064C05000800236000F018F8F8
:100ED000431C00D070BD2368002BFBD02B60F9E7CA
:100EE000401500207047C0467047C0460B1F1B6866
:100EF000181F002B00DB70470B58C018FBE7C046DB
:100F0000044A1368002B03D01818106018007047AB
:100F1000014BF9E704020020481500200022430895
:100F20008B4274D303098B425FD3030A8B4244D3B1
:100F3000030B8B4228D3030C8B420DD3FF220902F3
:100F400012BA030C8B4202D31212090265D0030BB2
:100F50008B4219D300E0090AC30B8B4201D3CB03A8
:100F6000C01A5241830B8B4201D38B03C01A5241EA
:100F7000430B8B4201D34B03C01A5241030B8B42EC
:100F800001D30B03C01A5241C30A8B4201D3CB02D7
:100F9000C01A5241830A8B4201D38B02C01A5241BC
:100FA000430A8B4201D34B02C01A5241030A8B42BF
:100FB00001D30B02C01A5241CDD2C3098B4201D3D7
:100FC000CB01C01A524183098B4201D38B01C01A55
:100FD000524143098B4201D34B01C01A52410309CC
:100FE0008B4201D30B01C01A5241C3088B4201D37B
:100FF000CB00C01A524183088B4201D38B00C01A28
:10100000524143088B4201D34B00C01A5241411A4E
:1010100000D20146524110467047FFE701B500205B
:1010200000F006F802BDC0460029F7D076E7704709
:101030007047C046F0B589B01422002103A8FFF71D
:10104000ADF8274B59698020C003014359615A69A3
:1010500002400092009A5969802080020143596140
:101060005A6902400192019A5A698021C9020A43D1
:101070005A615B690B400293029B9027FF05002297
:101080003021380003F0BCF8802101220902380029
:1010900003F0B6F8134D00222021280003F0B0F829
:1010A000114B03930126049600240594069403A98A
:1010B000380002F0DDFF072303930C4B04930596E1
:1010C00003A9280002F0D4FF20230393049605947B
:1010D000069403A9280002F0CBFF09B0F0BDC0467A
:1010E0000010024000040048308000000000111091
:1010F00010B500220021052003F0DEF8052003F0E2
:101100000BF900220021062003F0D6F8062003F098
:1011100003F910BD022809D004280CD0012800D002
:101120007047074A136801331360F9E7054A1368EB
:1011300001331360F4E7044A136801331360EFE7E7
:10114000080200200C0200201002002072B6FEE708
:1011500000B585B00C22002101A8FFF71FF8174841
:10116000174B0360002343608360C3600122026168
:1011700004214161037643768376C376C221FF3131
:10118000C16103629E39FF394354826203F040F922
:1011900000280FD10023019380235B010293802359
:1011A0005B05039301A9054803F088FA002803D1E1
:1011B00005B000BDFFF7CAFFFFF7C8FF74050020A8
:1011C0000024014000B587B01022002102A8FEF7DC
:1011D000E5FF082200216846FEF7E0FF1448154BA2
:1011E0000360002343608360134AC260036143616C
:1011F000836103F097FC002813D180235B010293E5
:1012000002A90B4803F0A6FD00280CD1002300938F
:1012100001936946064803F00DFF002805D107B089
:1012200000BDFFF793FFFFF791FFFFF78FFFC04669
:101230002C050020002C0140FFFF000000B593B0FA
:10124000102200210EA8FEF7A9FF1422002109A8F0
:10125000FEF7A4FF0822002107A8FEF79FFF1C222B
:1012600000216846FEF79AFF2A482B4B03600023B3
:1012700043608360294AC2600361836103F052FCCA
:10128000002838D180235B010E930EA9214803F07A
:1012900061FD002831D11F4803F070FC00282ED1D9
:1012A000002309930A9309A91A4803F00DFE0028A8
:1012B00027D100230793089307A9164803F0BAFE25
:1012C000002820D16023009300230193029304930C
:1012D000002269460F4803F0C1FC002815D1042202
:1012E00069460C4803F0BAFC002810D1094800F008
:1012F000EBF913B000BDFFF729FFFFF727FFFFF75A
:1013000025FFFFF723FFFFF721FFFFF71FFFFFF781
:101310001DFFC0466004002000040040FFFF0000E5
:1013200010B50B480B4B0360E1235B0243600023C5
:101330008360C36003610C2242618361C361036205
:10134000436204F0D1F9002800D110BDFFF7FEFE82
:10135000A80400200038014000B597B018220021F1
:101360000CA8FEF71BFF1022002106A8FEF716FFAF
:101370001422002101A8FEF711FF11230A93103B4C
:101380000B930F930F3310930E3B129380235B024A
:10139000139380235B031493002315930AA802F090
:1013A00031FA002819D107230693053B0793002340
:1013B00008930993012106A802F0B6FC00280ED17B
:1013C000094B0193002303938033059301A802F096
:1013D0005BFD002805D117B000BDFFF7B7FEFFF792
:1013E000B5FEFFF7B3FEC04601000200F0B5AFB096
:1013F00002F00AFEFFF7B0FFFFF71CFEFFF7A8FEA2
:10140000FFF7E0FEFFF71AFFFFF78AFF00F0C6F9CB
:10141000FFF76EFE0A21574800F0DCFA564802F04A
:1014200015FE564D0021280003F08AFD9024E405A6
:1014300000221021200002F0E3FE0421280003F026
:101440007FFD00222021200002F0DAFE4C4C20001B
:1014500003F0D0F9200003F09DF80026002559E0A4
:10146000020048491AA8FEF709FF0104090C1AA84E
:1014700000F0B0FA012002F0E9FD210001A800F01F
:10148000A9FA4EE0012002F0E1FD06213E4800F0FD
:10149000A1FA3E4D12E0012002F0D8FD06213C48A1
:1014A00000F098FA01256D4201AB00221A55013473
:1014B000632C08DC01AB1B5D422BE3D001AB1B5D51
:1014C0004E2BF1D1E7E7012002F0C0FD002D2ADD0F
:1014D0009027FF0500222021380002F091FE274CC2
:1014E000236800229A63012002F0B0FD012210213E
:1014F000380002F085FE23685D63214C200003F074
:1015000049F80021200003F075F8200003F0D2F81C
:10151000142E1FD801360A2101A800F073FA041E08
:101520009EDC0024C4E79027FF050022102138002C
:1015300002F066FE114C236800225A63012002F07B
:1015400085FD01222021380002F05AFE23686A42FC
:101550009A63D2E70F4C22680F491AA8FEF78EFE55
:101560000104090C1AA800F035FA002323600026B4
:10157000D0E7C0461C660008881300006004002005
:1015800074050020286600083466000860EA000040
:101590003C6600080802002044660008FEE7FEE7FB
:1015A0007047704710B502F03FFD10BD10B5012027
:1015B00002F02CFE022002F029FE10BD10B504201E
:1015C00002F024FE10BD000010B5024803F09AFDA1
:1015D00010BDC046A804002010B5024801F0C0FEAE
:1015E00010BDC0464812002082B00A4B9969012202
:1015F0001143996199690A400092009ADA69802141
:1016000049050A43DA61DB690B400193019B02B093
:101610007047C0460010024010B588B00400142284
:10162000002103A8FEF7BAFD2268124B9A4201D0AE
:1016300008B010BD104B996980208000014399616A
:101640009A6902400192019A5A69802189020A43EB
:101650005A615B690B400293029B0123039302339F
:101660000493002305937138FF3803A9C00502F0E5
:10167000FFFCDDE7002401400010024082B0036857
:101680000E4A934204D00E4A93420CD002B07047E7
:101690000C4A9169802000010143916193690340E4
:1016A0000093009BF2E7074AD16902231943D161F5
:1016B000D26913400193019BE8E7C046002C01402A
:1016C000000400400010024010B586B0040014224F
:1016D000002101A8FEF762FD22680F4B9A4201D05B
:1016E00006B010BD0D4A516980208002014351614E
:1016F000536903400093009BC0230193BE3B0293B8
:1017000000230393049301330593902001A9C0059E
:1017100002F0AEFCE4E7C0460004004000100240C6
:1017200010B588B004001422002103A8FEF736FD8E
:101730002268184B9A4201D008B010BD164B996927
:101740008020C001014399619A6902400192019A87
:101750005A69802189020A435A615B690B400293EE
:10176000029BC023DB000393022304930023059311
:1017700003330693023B0793902003A9C00502F0B0
:1017800077FC002200211B2002F096FD1B2002F0B6
:10179000C3FDD1E7003801400010024010B500221F
:1017A0001149124803F0D7FF002811D110490F4802
:1017B00003F0EDFF00280ED10E490C4804F0A0FE06
:1017C00000280BD1094803F0EBFF002809D110BD18
:1017D000FFF7BCFCEAE7FFF7B9FCEDE7FFF7B6FC63
:1017E000F0E7FFF7B3FCF2E764000020B405002047
:1017F000D0000020B400002012230B800048704766
:101800008000002004230B800048704794000020D3
:1018100030B500230AE05D0037344C5500015C0010
:1018200001340C19002525700133DBB2934206D236
:10183000040F092CEFD85D0030344C55EEE730BD75
:1018400070B50B4B18680B4B1D680B4B1B68C01811
:10185000002800D170BD094CA11C0822FFF7D8FF59
:101860002100123104222800FFF7D2FFF2E7C04620
:10187000ACF7FF1FB0F7FF1FB4F7FF1F9800002061
:1018800010B51A230B80FFF7DBFF014810BDC046DF
:101890009800002010B50A00002805D10549064827
:1018A00004F051FC034810BD0249034804F04BFC0E
:1018B000F8E7C046780800205466000810B50A0012
:1018C000034C2100034804F03EFC200010BDC0463C
:1018D000780800207066000810B50A00002805D1BD
:1018E0000549064804F02FFC034810BD024903488F
:1018F00004F029FCF8E7C046780800207C66000860
:1019000010B50A00002805D10549064804F01BFC63
:10191000034810BD0249034804F015FCF8E7C0462F
:101920007808002088660008002070470020704773
:1019300070B504000D681B4AA7239B00D35C032BE2
:1019400025D1002825D0002925D0002D25D0210023
:10195000144804F0E9FD0028F9D1124804F00AFE09
:101960000028FAD1681E002D0FD00F490A68551CB7
:101970001F232B4049688B4211D025780A498A18C9
:1019800015720B6005000134ECE7002000E0022036
:1019900070BD0220FCE70220FAE70220F8E70220EF
:1019A000F6E7C046B40500201402002010B5064C2E
:1019B00000220649200004F0ACFD0549200004F097
:1019C000B3FD002010BDC046B4050020600E00200D
:1019D000780A002010B50A4AAE239B00D258A43BD7
:1019E000D358002B01D0012010BD054C0A00010086
:1019F000200004F08EFD200004F09DFDF4E7C046B9
:101A0000B405002030B500281BD000291BD00024CD
:101A10004D1E002913D00D4B1A685B689A420CD0FA
:101A200001340A4AD3181B7A03705368591C1F23C8
:101A30000B40536029000130EAE7E0B204E0E0B275
:101A400002E0002000E0002030BDC046140200206B
:101A5000022804D005D8002800D0022070470120B9
:101A6000FCE70220FAE710B5FFF776FC10BD000096
:101A700000B583B002680C4B9A4201D003B000BDA0
:101A80000A4AD169802000040143D161D36903402F
:101A90000193019B002200211F2002F00DFC1F205A
:101AA00002F03AFCEAE7C046005C00400010024049
:101AB00010B50100BC239B00C058403B9C466144CC
:101AC00003F08AFE10BD10B50300BC2292008058BE
:101AD0008A005218D2009B187D33FF331A6803F036
:101AE000ADFE10BD10B50300BC22920080588A00E4
:101AF0005218D2009B18DA6B03F0F2FE10BD10B53D
:101B0000BC239B00C05803F0ADFF10BD70B50400AE
:101B10008368022B09D1BC25AD000121605903F077
:101B200083FF605903F051FF70BDFFF70FFBF2E731
:101B300010B50400BC239B00C05803F079FFA369D3
:101B4000002B04D0024A136906210B43136110BD18
:101B500000ED00E010B504008369002B05D1BC2323
:101B60009B00E05803F070FF10BD044A1369062182
:101B70008B431361FFF777FFF1E7C04600ED00E00C
:101B800070B504001D48BC239B00C450303BE0509E
:101B90001B4B036008234360063B83600361002303
:101BA0008361C361036200F0B7FF002823D1B02531
:101BB000AD00182300220021605901F0EFFD5823E9
:101BC00000228021605901F0E9FDC023002281211B
:101BD000605901F0E3FD88235B0000220121605978
:101BE00001F0DCFD605980235B000022822101F0BE
:101BF000D5FD002070BDFFF7A9FAD8E748120020F4
:101C0000005C004010B5B0239B00C05800F0F6FF08
:101C1000FFF71EFF10BD10B514001A00B0239B0083
:101C2000C058230001F070FCFFF712FF10BD10B583
:101C3000B0239B00C05801F0A6FCFFF709FF10BDC0
:101C400010B5B0239B00C05801F034FDFFF700FF32
:101C500010BD10B5B0239B00C05801F062FDFFF726
:101C6000F7FE10BDB0239B00C3584AB2002A09DB1F
:101C70007F220A4091008918C9005B186B33FF333B
:101C8000187870477F220A40013291008918C900F4
:101C90005B189878F5E710B5B0239B00C05801F0A9
:101CA00049FBFFF7D5FE10BD10B5B024A4000059C4
:101CB00001F0D2FCFFF7CCFE10BD10B5B024A4009B
:101CC000005901F094FCFFF7C3FE10BD10B5B0231E
:101CD0009B00C05801F0B6FC10BD000000487047E2
:101CE0003C0200207047000044230022C252043B03
:101CF000014AC2520020704780BFFFFF4022835A32
:101D000002490B40835200207047C0467F400000CC
:101D100084B0019102920393402201238352002355
:101D20008352043283520C328352002004B0704735
:101D3000F0B503000D78AD0045192A88AA48024085
:101D4000C87802285AD00AD8002853D0012804D1D4
:101D50008020C0000243002009E0012007E00328A2
:101D600004D1C020C0000243002000E001209F4CAD
:101D7000224392B22A800A7896009E1935882DB2A5
:101D80009B4F3D402A4392B21443A4B234800A7B55
:101D9000002A00D090E04A78002A3CD050229C5A79
:101DA0001C190A78D20012198024E400A446624467
:101DB000CC886408640014800A7892009A18148809
:101DC000640606D514883D0025408A4C2C43A4B2F5
:101DD0001480CA78012A13D00A7892009B181A88B6
:101DE00085490A4020214A4092B280490A4392B272
:101DF0001A804BE08024A4002243B8E70020B6E715
:101E00000A7892009B181A887B491140774A0A4346
:101E100092B21A803AE050255C5B1C190A78D20015
:101E20001219764CA4466244CC886408640014807D
:101E30005C5B1C190A78D2001219714CA4466244EA
:101E40000C69002C23D114886E4D2C40148014880A
:101E50006D4D2C43A4B214800A7892009A1814880D
:101E6000640406D51488624D2540684C2C43A4B206
:101E700014800A7892009B181988654A1140C02284
:101E800092015140594A0A4392B21A80F0BD3E2C49
:101E900007D86508E40700D50135AD02ADB215805D
:101EA000DAE76509E40600D1013DAD02ADB2564C5A
:101EB0002543ADB21580CFE70A7892009A181488AE
:101EC0004B4D2540534C2C43A4B2148050255C5BF1
:101ED0001C190A78D20012198024E400A446624436
:101EE0000C896408640014805C5B1C190A78D200B9
:101EF0001219424CA44662444C8964086400148060
:101F00004A78002A30D10A7892009A18148864041A
:101F100006D51488364D25403C4C2C43A4B2148081
:101F20000A7892009A181488640606D51488304DF1
:101F30002540304C2C43A4B214800C78A4001C190A
:101F40002288334D1540C02292016A40274D2A4312
:101F500092B222800A7892009B181A8826490A4079
:101F60002A4392B21A8091E70A7892009A1814884C
:101F7000640406D514881E4D2540244C2C43A4B27D
:101F800014800A7892009A181488640606D514887A
:101F9000174D2540174C2C43A4B21480CA78012A4F
:101FA00017D00C78A4001C192288134D2A40202534
:101FB0006A4092B20D4D2A4392B222800A78920072
:101FC0009B181A8812491140084A0A4392B21A8093
:101FD0005CE70A7892009A181488074D2540034C54
:101FE0002C43A4B21480E9E78F89FFFF8080FFFFB4
:101FF0008F8FFFFFC080FFFFBF8FFFFF0404000033
:1020000006040000FF83FFFF0080FFFF80C0FFFF8A
:102010008FBFFFFF8081FFFF10B50B7B002B33D1FB
:102020004B78002B18D00B789B00C3181A885206E7
:1020300006D51A884E4C14404E4A224392B21A805A
:102040000B789B00C01803884B4A1A404B4B134334
:102050009BB20380002010BD0B789B00C3181A8828
:10206000520406D51A88424C1440454A224392B283
:102070001A800B789B00C0180388424A1A403F4BD5
:1020800013439BB20380E5E74B78002B37D10B78E5
:102090009B00C3181A88520406D51A88344C144081
:1020A000374A224392B21A800B789B00C3181A88D1
:1020B000520606D51A882E4C14402E4A224392B25C
:1020C0001A800B789B00C3181A88294C1440294A9F
:1020D000224392B21A800C78A40004192388294A5A
:1020E0001340264A13439BB223800B789B00C018F1
:1020F000038821490B401A4392B20280AAE70B7869
:102100009B00C3181A88520406D51A88184C14402C
:102110001B4A224392B21A800B789B00C3181A887C
:10212000520606D51A88124C1440124A224392B223
:102130001A800B789B00C3181A880D4C1440104A63
:10214000224392B21A800C78A400041923880A4A08
:1021500013400A4A13439BB223800B789B00C0189C
:10216000038808490B401A4392B2028072E7C046C6
:102170008F8FFFFFC080FFFFBF8FFFFF8080FFFFBB
:1021800080C0FFFF8FBFFFFF4B78002B0ED00B7876
:102190009B00C01803880C4A1340102253409BB286
:1021A0000A4A13439BB20380002070470B789B00C0
:1021B000C0180288064B1A4080235B015A40034B2B
:1021C00013439BB20380EFE7BF8FFFFF8080FFFFC9
:1021D0008FBFFFFF10B50B7B002B3AD14B78002B44
:1021E0001DD00B789B00C3181A88520606D51A8892
:1021F000194C1440194A224392B21A80CB78012B11
:1022000027D00B789B00C0180388154A1340202262
:1022100053409BB2134A13439BB2038019E00B78DF
:102220009B00C3181A88520406D51A880A4C144019
:102230000D4A224392B21A800B789B00C018028884
:102240000A4B1A40C0239B015A40064B13439BB2D2
:102250000380002010BDC0468F8FFFFFC080FFFFAE
:10226000BF8FFFFF8080FFFF80C0FFFF8FBFFFFF9A
:10227000002902D14C238022C25200207047000066
:102280005822835A02490B439BB283520020704765
:102290000080FFFF4423C05A80B2704710B501335D
:1022A0005B0810188022D20094466044002B08D0AE
:1022B0000C784A7812022243028002300231013B3C
:1022C000F4E710BD70B505000C004A78012A2ED045
:1022D0000B7B002B00D067E28B690A69934200D820
:1022E00049E29B1A8B615023E95A69182378DB0075
:1022F0005B18B9498C466344002A00D03FE21A8833
:10230000B6490A401A801A88B5490A4392B21A801F
:10231000207880002D182A88B24B1A40C0239B01D8
:102320005A40B14B13439BB22B80002070BD8E6985
:1023300009698E4200D90E00237B002B21D0E3785F
:10234000022B3ED02378990069180988490600D4E9
:10235000CCE1002A00D0ABE15032AA5AAA18DB0027
:102360009B189D4A94466344002E00D08BE11A8846
:102370009A490A401A801A8899490A4392B21A80E7
:10238000A0E1B6B2E288330061692800FFF786FF5A
:102390005023EA5AAA182378DB009B18934A9446E4
:1023A00063441E80207880002D182B88904A1340AB
:1023B000302253409BB28C4A13439BB22B800020A7
:1023C000B4E7236A994200D342E123789B00EB18DB
:1023D0001A8888491140884A0A4392B21A80236AAF
:1023E0009B1B236223789A00AA181288520600D4F5
:1023F0008DE06278002A28D15032AA5AAA18DB0050
:102400009B18754A94466344002E09D11A88734973
:102410000A401A801A8872490A4392B21A8016E05A
:102420003E2E07D87208F10700D50132920292B20F
:102430001A800CE07209F10600D1013A920292B2C0
:1024400067490A4392B21A8001E0012A26D06289C4
:10245000B3B261692800FFF721FF63699B196361CB
:10246000236A2269934224D99B1B23626378002B41
:1024700038D15033EA5AAA182378DB009B185B4AFC
:1024800094466344002E18D11A8854490A401A8091
:102490001A8853490A4392B21A8025E04F32AA5A49
:1024A000AA18DB009B184C4A94466344B2B21A80C7
:1024B000CDE7002222621E00D8E73E2E07D8720820
:1024C000F10700D50132920292B21A800CE0720933
:1024D000F10600D1013A920292B241490A4392B206
:1024E0001A8001E0012B06D02289B3B2616928006D
:1024F000FFF7D4FE56E74F33EA5AAA182378DB00D9
:102500009B183A4A94466344B2B21A80ECE7627868
:10251000002A28D15032AA5AAA18DB009B18334A45
:1025200094466344002E09D11A882C490A401A8027
:102530001A882B490A4392B21A8016E03E2E07D819
:102540007208F10700D50132920292B21A800CE0B3
:102550007209F10600D1013A920292B220490A436F
:1025600092B21A8001E0012A26D02289B3B26169B1
:102570002800FFF793FE63699B196361236A226950
:10258000934224D99B1B23626378002B4BD1503399
:10259000EA5AAA182378DB009B180F4A9446634432
:1025A000002E2BD11A880D490A401A801A880C492E
:1025B0000A4392B21A8038E04F32AA5AAA18DB00B6
:1025C0009B180A4A94466344B2B21A80CDE70022AF
:1025D00022621E00D8E7C04606040000FF83FFFF0A
:1025E0000080FFFF8FBFFFFF8080FFFF020400001D
:1025F000BF8FFFFF8F8FFFFF8081FFFF3E2E07D829
:102600007208F10700D50132920292B21A800CE0F2
:102610007209F10600D1013A920292B2C3490A430B
:1026200092B21A8001E0012B06D06289B3B26169CF
:102630002800FFF733FEB5E64F33EA5AAA1823788D
:10264000DB009B18BA4A94466344B2B21A80ECE7A6
:1026500022789200AA181188B6480840B64901436A
:1026600089B211805022A95A69182278D2005218D2
:10267000B2498C4662449BB213802289616928006A
:10268000FFF70CFE8EE63E2E07D87208F10700D544
:102690000132920292B21A8014E07209F10600D15E
:1026A000013A920292B2A1490A4392B21A8009E019
:1026B0005022AA5AAA18DB009B189D4A94466344EC
:1026C000B2B21A806289B3B261692800FFF7E6FDF1
:1026D0006378002B41D123789B00EB181A88984926
:1026E0001140984A0A4392B21A805BE6002A28D128
:1026F0005032AA5AAA18DB009B18904A94466344A9
:10270000002E09D11A8890490A401A801A888749F0
:102710000A4392B21A801EE03E2E07D87208F107D3
:1027200000D50132920292B21A8014E07209F106C9
:1027300000D1013A920292B27C490A4392B21A80C5
:1027400009E05022AA5AAA18DB009B187B4A94463B
:102750006344B2B21A802289B5E7012B00D021E68A
:1027600023789B00EB181A8875491140774A0A4371
:1027700092B21A8016E600228A611A00B3E53E2A58
:1027800007D85108D20700D50131890289B21980D2
:10279000BEE55109D20600D10139890289B2634AE6
:1027A000114389B21980B3E5CB78022B3AD0012BC3
:1027B00000D008E189692369994200D8B1E0C91ABB
:1027C000A161002A14D15032A95A69182278D20086
:1027D00052185A498C466244002B00D0BAE0118846
:1027E00059480140118011885048014389B2118035
:1027F0006278002A00D0D7E05032A95A69182278AE
:10280000D20052184A498C466244002B00D0B6E0F0
:1028100013884D490B401380138844490B439BB2E6
:10282000138075E5002A14D14E33C25A82180B78F2
:10283000DB009B18414A944663440A69002A21D16F
:102840001A8841490A401A801A8838490A4392B2C4
:102850001A806378002B3FD15033EA5AAA182378A4
:10286000DB009B18324A944663442269002A1ED139
:102870001A8835490A401A801A882C490A4392B2AC
:102880001A802BE03E2A07D85108D20700D5013123
:10289000890289B21980DCE75109D20600D10139D9
:1028A000890289B2214A114389B21980D1E73E2AAF
:1028B00007D85108D20700D50131890289B21980A1
:1028C0000CE05109D20600D10139890289B2174AB8
:1028D000114389B2198001E0012B16D0E369002B66
:1028E00000D115E523789B00EB181A8818490A4097
:1028F0008A4202D0002A00D00AE51A881049114005
:10290000104A0A4392B21A8002E54F33EA5AAA18D3
:102910002378DB009B18064A94466344228A1A8077
:10292000DCE70023A3610B004BE7C0460080FFFFFC
:10293000060400008F8EFFFF8080FFFF020400006E
:102940008F8FFFFFC080FFFFFF83FFFF80C0FFFF6F
:10295000404000003E2B07D85908D80700D5013168
:10296000890289B2118043E75909D80600D101399B
:10297000890289B21548014389B2118038E73E2B9C
:1029800007D85908DB0700D50131890289B21180C7
:10299000BEE45909DB0600D10139890289B20B4B2B
:1029A000194389B21180B3E4012A00D0B0E44F3258
:1029B000A95A69182278D200521805498C466244F7
:1029C0009BB21380A4E40120B0E4C0460080FFFF66
:1029D0000604000010B55C0810188022D20094464E
:1029E0006044002C07D0028802300A70120A4A7034
:1029F0000231013CF5E7DB0701D503880B7010BD00
:102A000070B553043ED504685023E35A0D78EE00A8
:102A10009B191B193A4CA44663441C88A405A40DB9
:102A20008B69A34224D31B1B8B618B69002B0DD1B7
:102A3000AD0003689C4665442E88324B1E408023BF
:102A40009B015E40304B33439BB22B8053060BD52A
:102A50000A78920003689C46624413882B4D1D40FF
:102A60002B4B2B439BB21380002C04D1200070BD54
:102A700000238B61D9E700680A8949692300FFF7C1
:102A8000A9FFF3E704685023E35A0D78EE009B1981
:102A90001B19204CA44663441C88A405A40D8B6913
:102AA000A34229D31B1B8B618B69002B0DD1AD0079
:102AB00003689C4665442E88124B1E4080239B0170
:102AC0005E40114B33439BB22B8053060BD40A78E4
:102AD000920003689C46624413880C4D1D400C4BC9
:102AE0002B439BB21380002CC0D000684A894969EF
:102AF0002300FFF76FFFB9E700238B61D4E7C046DF
:102B0000020400008FBFFFFF8080FFFF8F8FFFFF59
:102B1000C080FFFF0604000070B586B0041E69D0B7
:102B2000354BC35C002B22D0334B0322E254206888
:102B3000FFF7E4F80021606881421FD24D1CAB0012
:102B40005A19D200A218012050705A19D2001155FA
:102B50008A005018C0002018C1865B19DB00E318FA
:102B60000026DE708663C6630664E9B2E3E7AA2343
:102B70009B000022C254FEF77BFFD5E7002119E03D
:102B80008A005318DB00E3181E006A36FF36002562
:102B90003570013E3170033635700D3635607D334A
:102BA000FF331D605218D200A2188132FF32156027
:102BB0000131C9B28842E3D8230010336A4623CBDF
:102BC00023C203CB03C26168A268E3682068FFF7F1
:102BD0009FF824230022E254074B0132E254E369B8
:102BE000012B02D0002006B070BD200000F0F3FDE4
:102BF0000020F8E70120F6E7A902000070B5040004
:102C0000AA239B00C35C012B0DD0AA25AD00012394
:102C100043550068FFF768F82068FFF731FB002391
:102C20006355002070BD0220FCE7000070B5050070
:102C30000C001600530600D4A6E002685023D35AB5
:102C40000978C8001B189B189B4A944663441A884D
:102C50009205920DA369934225D99B1AA361A3699A
:102C6000002B23D073040AD589002B689C4661444D
:102C70000B8892481840924B03439BB20B8024234D
:102C8000E35C012B24D0296823789B00C9180B88AA
:102C90008C4A1340302253409BB28B4A13439BB261
:102CA0000B80002070BD0023A361D8E72800FEF749
:102CB00019FF7304E7D5227892002B689C46624482
:102CC00013887E4919407E4B0B439BB21380DAE791
:102CD00063699B186361E3699B18E361216A236957
:102CE00099421AD3C91A21626278002A36D12A6819
:102CF0005021515A51182278D20052186E498C46F0
:102D00006244002B15D11188704801401180118850
:102D10006F48014389B2118022E0002903D12423A6
:102D2000E1541300E0E700232422A35423620B00A4
:102D3000DAE73E2B07D85908D80700D501318902B8
:102D400089B211800CE05909D80600D101398902F5
:102D500089B25F48014389B2118001E0012A06D09F
:102D60009BB2228961692868FFF798FA8BE72A6885
:102D70005021515A51182278D20052184E498C468F
:102D8000624499B21180EBE702685023D35A097864
:102D9000C8001B189B184F4A944663441A88920532
:102DA000920DA36993423BD39B1AA361A369002BA5
:102DB00039D073040AD489002B689C4661440B887F
:102DC0003E4818403E4B03439BB20B802423E35CF8
:102DD000012B00D057E763699B186361E3699B1877
:102DE000E361216A2369994230D3C91A21622A68B2
:102DF000617800294BD15031515A52182178C900BD
:102E0000521834498C466244002B2BD111882F482C
:102E10000140118011882E48014389B2118038E0A9
:102E20000023A361C2E72800FEF75CFE730400D50F
:102E300029E7227892002B689C46624413881F4938
:102E400019401F4B0B439BB213801CE7002903D191
:102E50002423E1541300CAE7002323622422A3544D
:102E60000B00C4E73E2B07D85908D80700D501311D
:102E7000890289B211800CE05909D80600D10139C4
:102E8000890289B21248014389B2118001E0012907
:102E900006D09BB2628961692868FFF7FFF9F2E604
:102EA0004F31515A52182178C900521809498C469D
:102EB000624499B21180ECE7020400008F8FFFFF9B
:102EC00080C0FFFFBF8FFFFF8080FFFFFF83FFFFFA
:102ED0000080FFFF06040000F8B5CE46474680B5E7
:102EE000040020684423C35A1BB2002B00DB1AE203
:102EF0004423C35A99B20F221D001540134200D03B
:102F0000C3E0CB0655D5028893B2120500D583E005
:102F10001BB2002BE5DA0388D84A13408022134302
:102F20009BB2038020685023C35AB4225200A25C93
:102F3000D2009B181B18D24A944663441B889B05F9
:102F40009B0D22006932FF32D361002B0FD05169F3
:102F500000290CD01500D288FFF73CFD6B69EA69A7
:102F6000944663446B6100212000FEF7ACFD2368AA
:102F700050229A5A9B18C24A9446634422006932EE
:102F8000FF321269002A6BD11A88BE490A401A80A2
:102F90001A88BD490A4392B21A8021680A88BB4B3D
:102FA0001A40C0239B015A40B94B13439BB20B807C
:102FB00097E70388B74A1A40B34B13439BB2038089
:102FC00021685023CB5A2822A25CD2009B185B18A0
:102FD000B14A944663441B889B059B0D6364E26B76
:102FE00094466344E36300212000FEF77BFD242325
:102FF000E35C002B00D174E7236C002B00D070E75A
:103000002422A35C802149420B43DBB2CC312068EF
:1030100043520023A35464E75023C35AB4225200FE
:10302000A25CD2009B181B18954A944663441B88E7
:103030009B059B0D22006932FF32D361AC218900D0
:103040006118D288FFF7C6FC226813888B490B40B1
:1030500080210B439BB213802000FEF729FD40E73F
:103060003E2A07D85108D20700D50131890289B21A
:10307000198092E75109D20600D10139890289B23B
:10308000814A114389B2198087E7AE00801903880D
:103090009FB21BB2002B47DB3B0600D421E7681C24
:1030A00083001918C9008846A044226894466644E3
:1030B000328878491140744A0A4392B232804346BA
:1030C000DB78022B00D110E120685023C35A6E1C1C
:1030D000B2009219D200125DD2009B181B186E4AE2
:1030E000944663441A889205920DAB005B19DB008D
:1030F000E3181E6C964200D800E1AB005B19DB00C0
:10310000E318B61A1E64AB005B19DB00E3181B6CF6
:10311000002B00D0F9E06B1C9D00ED18ED00295D3F
:103120002000FEF7DFFCDCE60388544A13408022CF
:1031300013439BB203807219D2006932FF3290466A
:10314000A0447319DB00E3187533FF331B78002BA1
:103150004DD120685033C25A7319DB00E31869332C
:10316000FF331B78DB00D3181B18454A9446634491
:103170001B889B059A0D9146002B2AD14B46AA002D
:103180005219D200A21810008530FF30016849445E
:10319000016011007D31FF310868484408608132C8
:1031A000FF321268002A09D0AA005219D200A218D0
:1031B0007932FF321268934200D391E0AB005B1981
:1031C000DB00E3186933FF3319782000FEF77BFC3E
:1031D00062E77319DB00E3181A006F32FF321288BE
:1031E0007D33FF3319684B46FFF7F4FBC6E7AB00AE
:1031F0005B19DB00E3186C33FF331B78022B35D0EF
:10320000AB005B19DB00E3186933FF3319788900E1
:103210002268944661440A8820481040204A0243AC
:1032200092B20A8020681B789A0082181288520491
:1032300038D55022825ADB00D3181B18164A944600
:1032400063441B889B059A0D9146002B96D0AB00DA
:103250005B19DB00E3181A007132FF3212887D33EC
:10326000FF3319684B46FFF7B5FB87E73A00414645
:103270002000FFF7C5FB814680E7C0468F0F0000A6
:1032800006040000FF83FFFF0080FFFF8FBFFFFFEA
:103290008080FFFF0F8FFFFF020400008F8FFFFF72
:1032A000C080FFFF5022825ADB00D3181B18204A2F
:1032B000944663441B889B059A0D9146002B00D1D0
:1032C0005CE7AB005B19DB00E3181A007332FF32D6
:1032D00012887D33FF3319684B46FFF77BFB4DE7C0
:1032E00041462068FEF7EEFFD6E6FB0500D4EBE68C
:1032F0003A0041462000FFF799FCF2E5AB005B196C
:10330000DB00E31800261E64FDE6AB005E19F60044
:10331000A619F16B8F18F763736C9A1872644146A3
:10332000FEF7D0FFDDE500200CBC90469946F8BDC5
:103330000604000070B50400AA239B00C35C012BA7
:103340000CD0AA25AD00012343552333C154006896
:10335000FEF78EFF00236355002070BD0220FCE7BE
:1033600070B504000068FEF795FF030400D57DE00A
:103370002068FEF78FFF430500D57BE02068FEF74D
:1033800089FF430405D5216844228B5A57480340DE
:103390008B522068FEF77EFF830405D52168442206
:1033A0008B5A534803408B522068FEF773FFC304C7
:1033B00018D521684023CA5A04208243CA52216882
:1033C000CA5A04308243CA52B8239B00E35C012BE3
:1033D0005ED02000FEF7BEFB216844228B5A454890
:1033E00003408B522068FEF755FF030559D420682F
:1033F000FEF750FF030628D5216844228B5A80200F
:1034000083438B52B8239B00E35C002B60D121687F
:10341000043A8B5A042003439BB28B5221688B5A87
:10342000082003439BB28B52B8239B003F3AE254DF
:1034300054232268D25A9208183B1340B9229200B2
:10344000A3500121200000F0DBF92068FEF722FFE5
:10345000830541D42068FEF71DFFC30505D521680B
:1034600044228B5A244803408B5270BD2000FFF742
:1034700033FD7DE7216844228B5A204803408B525C
:103480002000FEF743FB00212000FFF753FF75E704
:10349000B8239B000022E2540021200000F0B0F984
:1034A00097E7216840228B5A082003439BB28B5236
:1034B00020684421435A124D2B40435221688B5AB5
:1034C000042003439BB28B522000FEF731FB8EE7B2
:1034D0002000FEF72DFBB8E7216844228B5A0948EB
:1034E00003408B522000FEF70AFBB3E7FFBFFFFF4C
:1034F000FFDFFFFFFFEFFFFFFFFEFFFFFFFBFFFF11
:10350000FFF7FFFFFFFDFFFF70B504000D0049B29C
:10351000002929DB07262E40B0008119C900693136
:10352000FF3161188019C00020186A30FF30002672
:103530000670072005400D700A61CB704A78002A9A
:1035400000D0CD81022B19D0AA239B00E35C012B74
:1035500017D0AA25AD00012363552068FEF7E8FBCC
:1035600000236355002070BD07202840461CB00092
:103570008119C900611801264E70DAE700230B712A
:10358000E2E70220EFE770B504000A004BB2002B1F
:1035900021DB0720084083001918C9006931FF3179
:1035A00061181B18DB00E3186A33FF330020187022
:1035B00007231A400A70AA239B00E35C012B14D056
:1035C000AA25AD00012363552068FEF725FD0023E1
:1035D0006355002070BD07230B40581C8300191849
:1035E000C900611801204870E2E70220F2E7F8B54F
:1035F00007260E40B400A119C9006931FF314118F6
:10360000A519ED0045192F007D37FF373A602A00D4
:103610008132FF3213600432002313606A35FF35B4
:103620002B70A419E40004196934FF342670002EAD
:1036300004D10068FEF746FE0020F8BD0068FEF7E2
:1036400041FEF9E707230B409900C918C90040184B
:103650008530FF3000687047F0B5C64600B50725D5
:103660000D406F1CBE00F119C90088468044AC00B3
:103670006419E4000419E26323644C229446A444D0
:103680004B3A61460A70A3640023636443465A7050
:10369000F619F6003554002D07D100684146FEF7B3
:1036A00011FE002004BC9046F0BD00684146FEF7C4
:1036B00009FEF6E770B504000B0007220A404168D6
:1036C0008A422AD859B200291FDB9800C118C900C4
:1036D0006931FF316118C318DB00E3186A33FF3327
:1036E0000020187001238B700A70AA239B00E35CF2
:1036F000012B14D0AA25AD00012363552068FEF7E5
:1037000043FD00236355002070BD501C8300191831
:10371000C900611801204870E4E70120F4E70220A5
:10372000F2E770B504000B000F220A4041688A429C
:1037300030D85AB2002A23DB072018408200111823
:10374000C9006931FF3161181218D200A2186A321B
:10375000FF320020107000228A70073213400B7075
:10376000AA239B00E35C012B16D0AA25AD00012300
:1037700063552068FEF72EFD00236355002070BDC1
:1037800007221A40501C82001118C900611801203C
:103790004870E0E70120F2E70220F0E710B50C06E0
:1037A0000CD50724214001318C006118C900401854
:1037B000002A0AD10273C380002010BD8C0061185A
:1037C000C9006931FF314018F2E701220273038119
:1037D0001B0C4381F0E70168BA239B000122C25011
:1037E000083B0022C25454328B5A012003439BB23F
:1037F0008B528B5A022003439BB28B52002070479E
:103800007047000070B582B0041E00D138E2036832
:10381000DB072BD5B34B5A680C231340042B1DD068
:10382000B04B5A680C231340082B0ED06368012B51
:1038300041D0002B56D1AB4B1A68AB490A401A60F5
:103840001A68AA490A401A603BE0A64B5B68C0228E
:1038500052021340802252029342E7D1A14B1B68CF
:103860009B0303D56368002B00D10CE223689B0700
:1038700077D59C4B5B680C221A4262D0994B5A68F0
:103880000C231340082B53D0E368002B00D18AE0AF
:10389000944A136801210B43136000F0D1FB05002B
:1038A000904B1B689B0775D400F0CAFB401B022895
:1038B000F6D90320E5E18B4A116880235B020B43B4
:1038C00013606368002B25D000F0BAFB0500854B20
:1038D0001B689B03CAD400F0B3FB401B6428F6D9D5
:1038E0000320CEE1052B09D07E4B1A687E490A40A1
:1038F0001A601A687D490A401A60E2E7794B196834
:103900008022D2020A431A601968802252020A43B6
:103910001A60D6E700F094FB0500724B1B689B030E
:10392000A4D500F08DFB401B6428F6D90320A8E144
:103930006C4B5B68C02252021340802212029342F9
:10394000A2D1684B1B689B0703D5E368012B00D00D
:103950009BE164490B68F82293432269D200134328
:103960000B6023681B0744D5E369002B2ED05D4A0A
:10397000536A01210B43536200F062FB0500594B6F
:103980005B6A9B0735D400F05BFB401B0228F6D92D
:10399000032076E153490B68F82293432269D20051
:1039A00013430B60DDE74F4A136801218B4313601B
:1039B00000F046FB05004B4B1B689B07D1D500F080
:1039C0003FFB401B0228F6D903205AE1454A536ABF
:1039D00001218B43536200F033FB0500414B5B6ACE
:1039E0009B0706D500F02CFB401B0228F6D90320CC
:1039F00047E123685B0700D480E03A4BDB69DB00DA
:103A00001DD4384AD169802040050143D161D36972
:103A100003400193019B0125354B1B68DB0510D545
:103A2000A368012B21D0002B36D12E4B1A6A01211D
:103A30008A431A621A6A03318A431A621AE000251D
:103A4000EAE72B4A116880235B000B43136000F008
:103A5000F7FA0600264B1B68DB05E1D400F0F0FA0C
:103A6000801B6428F6D903200BE11E4A136A01214A
:103A70000B431362A368002B24D000F0E1FA060088
:103A8000184B1B6A9B0737D400F0DAFA801B194BDE
:103A90009842F5D90320F4E0052B09D0114B1A6A9E
:103AA00001218A431A621A6A03318A431A62E1E7E2
:103AB0000C4B1A6A04210A431A621A6A03390A4330
:103AC0001A62D7E700F0BCFA0600064B1B6A9B0798
:103AD00012D500F0B5FA801B064B9842F5D90320A9
:103AE000CFE0C04600100240FFFFFEFFFFFFFBFFDC
:103AF0000070004088130000012D33D02368DB06DE
:103B000010D56369012B33D0053351D1654A536B0E
:103B100004218B435363536BF4318B43A169C90078
:103B20000B435363236A002B00D1B0E05D4A516818
:103B30000C220A40082A00D18AE0022B4FD0594AB1
:103B4000136859490B40136000F07AFA0400554B92
:103B50001B689B017AD500F073FA001B0228F6D986
:103B600003208EE04F4AD36950490B40D361C5E72B
:103B70004C4B5A6B04210A435A635A6B03390A436C
:103B80005A6300F05DFA0500464B5B6B9B0706D459
:103B900000F056FA401B0228F6D9032071E0414993
:103BA0004B6BF8229343A269D20013434B63B9E7EE
:103BB0003C4B5A6B04210A435A635A6B03398A43BC
:103BC0005A6300F03DFA0500364B5B6B9B07A9D5A5
:103BD00000F036FA401B0228F6D9032051E0314AA2
:103BE000136831490B40136000F02AFA05002D4B91
:103BF0001B689B0106D500F023FA401B0228F6D96A
:103C000003203EE0274BDA6A0F218A43E16A0A4328
:103C1000DA625A6826490A40A16A606A01430A4387
:103C20005A601968802252040A431A6000F008FAA8
:103C300004001C4B1B689B0106D400F001FA001B1A
:103C40000228F6D903201CE000201AE0002018E02A
:103C5000012B1ED0134B5A68D96AC0235B02134054
:103C6000606A834217D10F230B40E16A8B4214D163
:103C7000F0239B031A40A36A9A4210D1002000E06F
:103C8000012002B070BD0120FBE70120F9E7002010
:103C9000F7E70120F5E70120F3E70120F1E7012034
:103CA000EFE7C04600100240FFFFFFFEFFFFFFEFFF
:103CB000FF7FC2FF10B588B004AA174B13CB13C205
:103CC0001B6813606A46154B13CB13C21B68136045
:103CD000134B5A680C231340082B02D0114808B02C
:103CE00010BD910C0733194004A8445C0C49C96A03
:103CF0000B406946C95CC0235B021A4080235B020B
:103D00009A4204D00748FDF709F96043E7E7054800
:103D1000FDF704F96043E2E798660008AC66000826
:103D20000010024000127A0070B504000D00002857
:103D300000D17EE0434B1A68012313408B420AD224
:103D400040490B68012293432B430B600B681A40D8
:103D5000AA4200D06FE023689A070ED55B0705D50D
:103D6000394A5168E023DB000B435360364A5368FD
:103D7000F0218B43A1680B4353602368DB072DD5EB
:103D80006368012B1ED0022B22D02F4A12689207A3
:103D900053D52D494A680320824313434B6000F0FA
:103DA0004FF90600284B5B680C221A4063689B00A1
:103DB0009A4213D000F044F9801B244B9842F1D969
:103DC000032035E0204A12689203E2D401202FE05C
:103DD0001D4A12689201DCD4012029E0194B1A68AF
:103DE00001231340AB4209D916490B6801229343C2
:103DF0002B430B600B681A40AA4220D123685B0753
:103E000006D5114A536812490B40E1680B435360D1
:103E1000FFF750FF0C4B5A6812090F2313400D4A4D
:103E2000D35CD8400C4B1860002000F0C5F800208F
:103E300070BD0120FCE70120FAE70120F8E701202E
:103E4000F6E7C04600200240001002408813000040
:103E5000FFF8FFFFC0660008CC000020014B186887
:103E60007047C046CC00002010B5FFF7F7FF044BA9
:103E70005A68120A07231340024AD35CD84010BD87
:103E800000100240D066000870B582B004000368DC
:103E9000DB0337D5424BDB69DB0053D4404AD169A1
:103EA000802040050143D161D36903400193019B08
:103EB00001253C4B1B68DB0546D5394B1A6AC023EC
:103EC0009B00110019401A4213D0626813408B42C4
:103ED0000FD0334B186A344A02401E6A80214902CF
:103EE00031431962196A314E314019621A62C307AF
:103EF0003ED42B4A136A2C490B4061680B43136272
:103F0000012D44D02368DB0706D5254A136B032116
:103F10008B43A1680B43136323689B0606D5204A95
:103F2000136B10218B43E1680B43136323689B03DE
:103F300032D51B4A136B80218B4321690B431363DA
:103F400000202AE00025B4E7164A116880235B00B0
:103F50000B43136000F074F80600124B1B68DB057E
:103F6000ABD400F06DF8801B6428F6D9032014E070
:103F700000F066F806000A4B1B6A9B07B9D400F0F4
:103F80005FF8801B0A4B9842F5D9032005E0D369FE
:103F900008490B40D361B5E7002002B070BDC046B0
:103FA0000010024000700040FFFCFFFFFFFFFEFF1B
:103FB00088130000FFFFFFEF10B504000F4B1978C6
:103FC000FA208000FCF7AAFF01000D4B1868FCF7EF
:103FD000A5FF00F0ADF900280DD1032C01D9012077
:103FE0000AE0013000222100404200F065F9054B53
:103FF0001C60002000E0012010BDC046C40000206D
:10400000CC000020C800002010B5064A136810211B
:104010000B4313600020FFF7CFFFFDF7E5FA002008
:1040200010BDC04600200240034A1168034B1B78B4
:104030005B1813607047C0463C150020C400002088
:10404000014B18687047C0463C15002070B504004D
:10405000FFF7F6FF0500631C02D0044B1B78E41841
:10406000FFF7EEFF401BA042FAD370BDC400002052
:10407000F0B5CE46474680B583B0002333E0032633
:1040800000E00026A64034003C4302329200564E27
:104090009451564A1468EA432600AE434F68FF0322
:1040A00001D52C432600514C26606468260016403A
:1040B0004F68BF0301D52C4326004C4C6660A468B2
:1040C000260016404F68FF0201D52C432600474CBE
:1040D000A660E46822404E68B60201D52A00224359
:1040E000424CE26001330C682200DA4077D00122B2
:1040F0009A40250015401442F4D04C68661E012EEB
:1041000003D9112C01D0122C12D184685F00032630
:10411000BE40B4432600CC68BC403443846044684D
:1041200094434A681609012232409A402243426071
:10413000C4685F000326BE40F2439446B4432600A1
:104140008C68BC403443C4604A68022A01D0122AF9
:1041500010D1DE080836B2009146145807221A40E2
:1041600092000F269640B4430E69964032002243D7
:104170004C46225004686246144003224E68324086
:10418000BA40224302604A68D200ABD5184CA669F7
:1041900001221643A661A46922400192019A9A085D
:1041A000941CA400104EA75903241C40A4000F2601
:1041B000A640B7439026F605B04200D161E70D4E08
:1041C000B04208D00C4EB04207D00C4EB04200D1E5
:1041D00055E7052656E7012654E7022652E703B0C5
:1041E0000CBC90469946F0BD00000140000401401F
:1041F000001002400004004800080048000C00487D
:10420000002A01D0816170478162FCE710B5054B3F
:104210005B69184200D110BD024B5861FCF77AFF70
:10422000F9E7C0460004014010B52123C35C022B0E
:1042300006D0042383631C330022C254012010BD26
:10424000026813680E218B43136001680A6801231A
:104250009A430A60C26B1900046CA140516021228C
:1042600083541F330022C2540020E8E710B52123F5
:10427000C35C022B03D004238363012010BD0268BA
:1042800013680E218B43136001680A6801239A4367
:104290000A60C26B1900046CA14051602122835452
:1042A0001F330022C254436B002B02D098470020DA
:1042B000E4E70020E2E7000070B5002811DB830886
:1042C000134EC0339B009D5903242040C000FF22A1
:1042D00014008440A54389010A4082402A439A5130
:1042E00070BD0F230340083B9B0806339B00094A1F
:1042F000944663445C6803221040C000FC32150001
:104300008540AC4389010A40824022435A60E7E776
:1043100000E100E000ED00E0002805DB1F2318406D
:104320001E3B8340014A13607047C04600E100E035
:10433000013880235B0498420FD2094A5060094833
:10434000036A1B021B0AC02109060B4303620023F8
:10435000936007331360002070470120FCE7C046DC
:1043600010E000E000ED00E030B583B00400002371
:1043700001930368996803220A40012A14D09968BE
:10438000204A114218D19A6801210A439A601E4BB3
:1043900018681E49FCF7C2FD0190019B002B16D046
:1043A000019B013B0193F8E71A68D20727D4DA682A
:1043B0001204E4D5002008E0A36B10221343A3638A
:1043C000E36B0F3A1343E363012003B030BDFFF703
:1043D00037FE050023681B68DB070ED4FFF730FEAD
:1043E000401B0228F6D9A36B10221343A363E36B8F
:1043F0000F3A1343E3630120E7E70020E5E70020DD
:10440000E3E7C04617000080CC00002040420F00C8
:1044100070B5041E00D1B4E0836B002B00D180E0A6
:10442000A36BDB0600D5A6E0226891680420050096
:104430000D40084200D09EE0A16B534B194006335B
:10444000FF331943A163916801330B40012B6ED0F8
:10445000D36818218B43A1680B43D360226813698A
:104460009B009B0861680B4313612268D36847492E
:104470000B40D360237E9B03627ED2031343A17E55
:104480004A031343A26A012A58D0802252011343DF
:10449000E26813432269022A52D02B432422A25CF1
:1044A00052001343E27E012A4CD0E269C221FF315F
:1044B0008A4202D0216A0A4313432168CA681A4318
:1044C000CA60E26A802149058A420DD0012A0BD0D8
:1044D000022A09D0032A07D0042A05D0052A03D0CE
:1044E000062A01D0072A0AD1206841690722914390
:1044F000416120684169E56A2A400A4342612268B5
:10450000D26823490A409A422BD0A36B12229343CC
:10451000023A1343A363E36B0F3A1343E3630120AF
:104520002EE0C36334228354FDF776F878E71368EE
:10453000DB079AD4D3681B0497D489E72A00A6E73F
:104540000425AAE7002903D1802252021343ACE7D5
:10455000A26B20210A43A263E26B1F390A43E26384
:10456000A3E70023E363A36B03229343023A1343BD
:10457000A363002004E0A36B10221343A363012074
:1045800070BD0120FCE7C046FDFEFFFF1902FEFFE3
:10459000E7FF3F8310B5040003689B685B0723D4E3
:1045A0003423C35C012B21D034230122C254437E27
:1045B000012B14D10020A36B0D4A1A4080235B000D
:1045C0001343A3630023E3633422A3542368183AFC
:1045D0001A602268936804210B43936010BDFFF7B3
:1045E000C3FE0028FAD1E6E70220F7E70220F5E74C
:1045F000FEF0FFFFF8B504000D004669082E04D058
:104600000368DB68DB0719D40C26FFF719FD0700E8
:1046100023681A6816421AD16B1CF9D0002D04D0F9
:10462000FFF70EFDC01BA842F2D9A36B042213436F
:10463000A36334230022E25403202CE0836B202266
:104640001343836334230022C254012023E0A16B6F
:10465000802292000A43A263D968C022120111424B
:1046600013D1A27E002A10D11A6812070DD59A68BC
:10467000520711D45A680C218A435A60A36B0C4A22
:1046800013400432FF321343A363207E00280CD171
:1046900023680C221A60F8BDA36B20221343A36386
:1046A000E36B1F3A1343E363EFE70020F3E7C046F1
:1046B000FEFEFFFF0368186C7047000030B583B042
:1046C0000400002301933433C35C012B00D182E04A
:1046D00034230122C25403689A68520771D43F4AB6
:1046E0004868904254D09A6A01200D68A84002435D
:1046F0009A62E36A8022520593421ED0012B1CD09D
:10470000022B1AD0032B18D0042B16D0052B14D053
:10471000062B12D0072B10D02268506907230340C4
:104720008868984209D050690723984350612068EF
:1047300042698D682B40134343610B681A00103A9D
:10474000012A01D9002041E0254A1268102B09D026
:104750008023DB031343224A13600B68102B04D021
:10476000002033E080231B04F4E71E4B18681E4929
:10477000FCF7D4FB03008000C01840000190019BAF
:10478000002B03D0019B013B0193F8E700201DE0C3
:104790009A6A01200D68A84082439A620B681A0049
:1047A000103A012A01D9002010E00D4A1268102B9E
:1047B00005D00E4B13400A4A1360002006E00C4B54
:1047C000F8E7836B20221343836301203423002204
:1047D000E25403B030BD0220FBE7C04601100000E8
:1047E00008270140CC00002040420F00FFFFBFFF20
:1047F000FFFF7FFF70B504003423C35C012B4CD056
:1048000034230122C2540368996802320A40012A03
:1048100005D11A68D20737D4DA68120434D4A26BEF
:104820001F490A400631FF310A43A263DE680131A5
:104830000E40DA688A43DA602268916880231B069A
:104840000B439360FFF7FCFB050023689A68002A7E
:104850000FDAFFF7F5FB401B0228F6D9A36B1222F3
:104860009343023A1343A36334230022E25401200A
:1048700012E0DA681643DE60A36B03229343023A28
:104880001343A363002004E0A36B20221343A3631C
:10489000012034230022E25470BD0220FCE7C04610
:1048A000FDFEFFFF30B5036A012293430362036AF2
:1048B000426884697325AC430D682C430225AB43E1
:1048C0008D682B43144DA84208D0144DA84205D042
:1048D000134DA84202D0134DA84205D10825AB4381
:1048E000CD682B430425AB430B4DA84208D00B4D9C
:1048F000A84205D00A4DA84202D00A4DA84205D1CF
:10490000094D2A404D692A438D692A4342608461DA
:104910004A684263036230BD002C01400040014000
:104920000044014000480140FFFCFFFF70B5036AEE
:10493000194A13400362036A4268C4697325AC4391
:104940000E682643154C23408C6824022343144CE4
:10495000A04219D0124CA04208D0124CA04205D05F
:10496000114CA04202D0114CA04207D1104C14406F
:104970004A69120122438C6925012A434260C661BB
:104980004A68C263036270BD0A4C1C40CB681B02BC
:104990002343094C2340DDE7FFFEFFFFFFFDFFFF40
:1049A000002C01400040014000440140004801400B
:1049B000FFCFFFFFFFF7FFFFFFFBFFFF30B5036AED
:1049C000134A13400362026A4368C469114D2C40C4
:1049D0000D682D022C43104D15408A6812032A439E
:1049E0000E4DA84208D00E4DA84205D00D4DA8424C
:1049F00002D00D4DA84204D10C4D2B404D69AD01A4
:104A00002B434360C4614B680364026230BDC046FF
:104A1000FFEFFFFFFF8CFFFFFFDFFFFF002C0140D8
:104A2000004001400044014000480140FFBFFFFF3B
:104A300030B5036A046A0125AC4304628469EF352A
:104A4000AC43120122430A24A3430B438261036255
:104A500030BD000030B5036A1024A34303628469AB
:104A6000036A054D2C4012032243A024A3430901ED
:104A700019438261016230BDFF0FFFFF836870221E
:104A800093430B4307210B4383607047704700003B
:104A900003681D4A904202D01C4A904203D1702202
:104AA00093434A681343184A90420ED0174A9042E3
:104AB0000BD0174A904208D0164A904205D0164AA9
:104AC000904202D0154A904203D1154A1340CA6859
:104AD0001343802293434A69134303608B68C36284
:104AE0000B688362084B984208D00A4B984205D065
:104AF000094B984202D0094B984201D10B690363DC
:104B0000012343617047C046002C0140000400406F
:104B100000200040004001400044014000480140A6
:104B2000FFFCFFFF70B5041E26D03D23C35C002BA5
:104B30001CD03D2502236355210001C9FFF7A8FFC2
:104B400001234622A354083AA3540132A35401324C
:104B5000A3540132A3540132A3540132A3540132AD
:104B6000A3540132A3546355002070BD3C3300228E
:104B7000C254FCF783FDDCE70120F6E770B5041EA4
:104B800026D03D23C35C002B1CD03D25022363555A
:104B9000210001C9FFF77CFF01234622A354083AF4
:104BA000A3540132A3540132A3540132A35401325D
:104BB000A3540132A3540132A3540132A3546355C8
:104BC000002070BD3C330022C254FFF75FFFDCE7DA
:104BD0000120F6E770B5036A102293430362036A6B
:104BE00042688469174D2C400D682D02254320240E
:104BF000A3438C6824012343134CA04219D0124CC8
:104C0000A04208D0114CA04205D0114CA04202D0C5
:104C1000104CA04207D1104C14404A699200224324
:104C20008C69A6003243426085614A6882630362F0
:104C300070BD8024A3431C00CB681B012343402488
:104C4000A343DCE7FF8CFFFF002C01400040014044
:104C50000044014000480140FFF3FFFF70B504002D
:104C60000D003C23C35C012B63D03C230121C154C4
:104C7000082A4AD019D8002A2FD0042A40D1290066
:104C80000068FFF7A7FF2268916980231B010B438F
:104C900093612268936928490B40936121688B696D
:104CA0002A69120213438B612AE00C2A28D12900B9
:104CB0000068FFF783FE2268D16980231B010B4344
:104CC000D3612268D3691C490B40D3612168CB6949
:104CD0002A6912021343CB6112E029000068FFF732
:104CE000E1FD2268936908210B439361226893696F
:104CF00004398B4393612268936929690B4393615B
:104D00003C230022E254002070BD29000068FFF718
:104D10000DFE2268D36908210B43D3612268D36951
:104D200004398B43D3612268D36929690B43D3616A
:104D3000E6E70220E8E7C046FFFBFFFF30B58468E6
:104D4000034D2C401B0213430B432343836030BDB0
:104D5000FF00FFFF10B504003C23C35C012B66D0AD
:104D60003C230122C25401330132C25402689368C9
:104D70003048034093600B68602B44D024D8402B0C
:104D80004BD00BD9502B0ED1CA6849682068FFF769
:104D90004FFE50212068FFF771FE04E0202B0ED05B
:104DA00009D9302B0BD03D230122E254013B0022D4
:104DB000E254002010BD002B01D0102BF3D11900BC
:104DC0002068FFF75BFEEEE7702B10D08022920187
:104DD0009342E8D1CB684A6889682068FFF7AEFF44
:104DE000226891688023DB010B439360DBE7CB688B
:104DF0004A6889682068FFF7A1FF226893687721D5
:104E00000B439360CFE7CA6849682068FFF722FE2A
:104E100060212068FFF732FEC5E7CA68496820684C
:104E2000FFF706FE40212068FFF728FEBBE70220BF
:104E3000C0E7C0468800FFFF70B502689368702421
:104E4000A3434C6823430724A3430C682343936084
:104E50004B68602B2DD00CD8402B14D0502B06D192
:104E60000A6989680068FFF7E3FD002029E0002057
:104E700027E0702B24D10B698A68C9680068FFF7A6
:104E80005DFF00201DE00B68052B1BD003681D6A29
:104E90001A6A0124A2431A620468A369F0229343A8
:104EA0001A000B691B011343A36103681D620020F4
:104EB00007E00A6989680068FFF7CCFD002000E080
:104EC000002070BD0120FCE710B504003C23C35C4A
:104ED000012B22D03C230122C25401330132C2549F
:104EE000FFF7AAFF002810D12268D36840218B4326
:104EF000D3602268D3680A490B40D3603D23012266
:104F0000E254013B0022E25410BD3D230122E25451
:104F1000013B0022E2540120F6E70220F4E7C046FC
:104F2000FFBFFFFF10B51F23194001248C40036A07
:104F3000A3430362036A8A401343036210BD000067
:104F400010B50400002932D13E23C35C013B5A1E38
:104F50009341DBB2002B5ED1002941D13E330222C6
:104F6000E25401222068FFF7DDFF23682C4A9342B8
:104F700008D02C4A934205D02B4A934202D02B4AA8
:104F8000934204D1596C802212020A435A64236866
:104F9000234A934234D0264A934231D0214A934245
:104FA0002ED01A6801210A431A60002034E0042937
:104FB00008D008290DD04123C35C013B5A1E934100
:104FC000DBB2C7E73F23C35C013B5A1E9341DBB210
:104FD000C0E74023C35C013B5A1E9341DBB2B9E7F3
:104FE000042905D0082907D041230222E254B8E75A
:104FF0003F230222E254B4E740230222E254B0E706
:10500000996807220A40062A07D01A6801210A4334
:105010001A60002000E0012010BD0020FCE7C0461F
:10502000002C014000400140004401400048014084
:105030000004004030B53C23C35C012B24D03C234A
:105040000122C25401330132C25403685A689C6879
:105050007025AA430D682A435A6003680B4A93429D
:1050600005D00B4A934202D00A4A934204D18022CF
:1050700094434A6814439C603D230122C254013B7F
:105080000022C254002030BD0220FCE7002C014069
:105090000004004000400140026813680B490B40C7
:1050A0001360026893682331FF318B439360036E72
:1050B000012B05D02023C367002303664366704796
:1050C000026813680F318B431360F3E7DFFEFFFFC5
:1050D000704710B50268136840218B43136020238A
:1050E000836700238366FFF7F3FF10BD704710B599
:1050F000406A00235A228352083A8352FFF7F6FF90
:1051000010BD704770B504000268D36910689668D6
:105110008B491D000D400B4203D1990601D5810634
:1051200018D4002D07D001210D003540314217D190
:105130008449084214D1216E012900D18BE01A065E
:1051400002D5020600D5EFE05B0602D5430600D586
:10515000F1E070BD636E002BFBD020009847F8E7AC
:10516000D90707D5C10505D50126166280216258E9
:10517000324362509A0709D5002D07D022680221D8
:1051800011627E3162580426324362505A0709D5B3
:10519000002D07D02268042111627C31625802265A
:1051A000324362501A070AD5820601D4002D06D078
:1051B000226808251562802162582A4362501A0528
:1051C0000AD5420108D52268802109011162802197
:1051D000625820252A4362508022A258002AB8D063
:1051E0009B0606D5830604D5636E002B01D02000F4
:1051F00098478023E25823689B685B0602D42823E3
:10520000134221D02000FFF747FF23689A68520617
:1052100016D59A6840218A439A60236F002B0BD0E1
:10522000494A5A63206FFFF721F8002800D190E720
:10523000206F436B98478CE72000FFF757FF88E704
:105240002000FFF753FF84E72000FFF74FFF802384
:105250000022E2507DE7D90600D470E7C10600D4F1
:105260006DE710231362226893685B0636D5216FC1
:105270000B685B689BB2002B00D16AE75820205A6C
:10528000984200D865E75A2023528B69202B09D118
:105290005823E15A0233E35AC91A89B22000FFF7B2
:1052A00030FF56E7136829490B4013602268936862
:1052B0000331FF318B439360226893683F318B4306
:1052C00093602023E3670023236622681368303944
:1052D0008B431360206FFEF7A7FFD9E75823E15AED
:1052E0000233E05A091A89B2E35A9BB2002B00D16B
:1052F0002FE7002900D12CE71368154803401360FD
:10530000226893682330FF30834393602023E36750
:10531000002323666366226813680F30834313609B
:105320002000FFF7EEFE14E7A36E002B00D110E77C
:10533000200098470DE72000FFF7CBFE09E7C046A5
:105340000F08000020010004EF500008FFFEFFFFDF
:10535000DFFEFFFF10B50400836802691343426952
:105360001343C269134301680A6855480240134356
:105370000B602268536853490B40E1680B4353604C
:10538000226AA3691A4321688B684F48034013437C
:105390008B6023684D4A93420AD04D4A934240D0D5
:1053A0004C4A93423FD04C4A934230D010230BE0FA
:1053B0004A4B1A6B03231340022B2AD023D8002B0D
:1053C00029D0012B29D10333E069802212029042B7
:1053D0002BD0042B00D16BE05AD8002B62D0022BCB
:1053E00054D13F4863685B0818186168FBF796FD65
:1053F0000004000C0200103A3A4B9A425DD8236830
:10540000D86000204AE0032B09D1013BDCE70023F0
:10541000DAE70823D8E70023D6E71023D4E71023E0
:10542000D2E70023D0E70023CEE7042B2BD020D8EF
:10543000002B22D0022B1AD12948400063685B0858
:10544000C0186168FBF76AFD83B20004000C01001C
:105450001039244A91422ED80F2293431A00400853
:105460000723184010432368D860002016E001206D
:1054700014E0082BE1D0012010E0FEF7F5FC002835
:10548000DBD100200AE0FEF715FCF8E7012005E07B
:10549000082B02D180200002A4E7012000236366CC
:1054A000A36610BDFEF7E0FC00289BD10020F5E7C5
:1054B000FEF700FCF8E70120F0E70120EEE7C04628
:1054C000F369FFEFFFCFFFFFFFF4FFFF003801405C
:1054D0000044004000480040004C004000100240E2
:1054E00000127A00EFFF0000436ADB0706D502686E
:1054F00053682C490B40816A0B435360436A9B07F6
:1055000006D50268536828490B40C16A0B435360B3
:10551000436A5B0706D50268536824490B40016B58
:105520000B435360436A1B0706D502685368204942
:105530000B40416B0B435360436ADB0606D50268A0
:1055400093681C490B40816B0B439360436A9B0635
:1055500006D50268936818490B40C16B0B439360F2
:10556000436A5B060BD50268536814490B40016C13
:105570000B43536080235B03026C9A420AD0436A58
:105580001B0606D5026853680D490B40816C0B431E
:1055900053607047026853680A490B40416C0B43E3
:1055A0005360ECE7FFFFFDFFFFFFFEFFFFFFFBFF88
:1055B000FF7FFFFFFFEFFFFFFFDFFFFFFFFFEFFFBB
:1055C000FFFFF7FFFFFF9FFFF8B5CE46474680B5C8
:1055D00006000D0017009946089B98463368DC6961
:1055E0002C40641B63425C41BC423DD143460133C5
:1055F000F4D0FEF725FD4B46C01A404521D843465E
:10560000002B1ED033681A685207E7D5DA691205F5
:10561000E4D5802212011A623268136815490B40E2
:10562000136032689368A331FF318B43936020236A
:10563000B367F3678022B35054330022F25403203F
:1056400013E0326813680B490B40136032689368AB
:10565000A331FF318B4393602023B367F367543347
:105660000022F254032000E000200CBC9046994632
:10567000F8BDC0465FFEFFFF30B583B00400802355
:105680000022C250FEF7DCFC050023681B681B07E4
:105690000DD423681B685B0716D42023A367E36738
:1056A000002323667422A354002003B030BD802160
:1056B0000C4B00930300002289032000FFF784FFB6
:1056C0000028E6D00320F0E78021064B00932B0052
:1056D0000022C9032000FFF777FF0028DDD0032058
:1056E000E3E7C046FFFFFF0110B5041E2ED0836F15
:1056F000002B21D02423A3672268136801218B4348
:1057000013602000FFF726FE012814D0636A002BE7
:1057100018D1226853680E490B4053602268936881
:1057200008218B4393602268136807390B43136089
:105730002000FFF7A1FF10BD74330022C254FBF715
:10574000EFFFD7E72000FFF7CFFEE2E70120F2E707
:10575000FFF7FFFF704710B5002816D0AD239B0060
:10576000C358002B03D0AD239B000024C450002954
:1057700002D0AC239B00C150A7239B000121C15440
:105780000270FCF7FDF9002010BD0220FCE70029A3
:1057900004D0AD239B00C150002070470220FCE7DD
:1057A00010B5FCF72FFA002010BD10B5AD239B00FB
:1057B000C358002B06D01B689847002800D110BDA5
:1057C0000220FCE70220FAE710B5AD239B00C35886
:1057D0005B689847002010BD70B50400AA239B00A9
:1057E000C518280000F064F9A5239B000122E250AF
:1057F000114BE25A163BE2501033E15C1F230B4081
:10580000012B0FD0022B12D0002B05D07F23994300
:105810002000FCF715FA03E02900200000F022FB2D
:10582000002070BD2900200000F052FBF8E729009D
:10583000200000F080FBF3E7AE02000070B5050029
:105840000C001100002C38D1A5239B00C358032B5A
:1058500003D0052B28D020003DE002005532FF3256
:10586000D368126993420DD99B1A5530FF30C3603B
:105870009A4205D99AB2280000F0A9FC20002AE03B
:1058800092B2F8E7AD239B00C3581B69002B04D0EC
:10589000A7229200825C032A04D0280000F09FFC1B
:1058A000200018E09847F8E7A5239B000022C2508B
:1058B0000021FCF7C5F920000DE0AD239B00C35883
:1058C0009B69002B08D0A7229200825C032A05D195
:1058D00021009847002070BD0220FCE70220FAE773
:1058E000F8B505000C001100002C5BD1A5239B002E
:1058F000C358022B0ED0042B01D0002B03D18021E2
:105900002800FCF79DF9A8239B00EB5C012B43D0FA
:105910002000F8BD026A466AB24220D8C769310049
:105920003800FBF781FB002906D1BE4204D8A6232C
:105930009B00EB589F421ED3AD239B00EB58DB68C6
:10594000002B04D0A7229200AA5C032A21D0802138
:105950002800FCF775F9280000F04DFCD3E7921BF6
:10596000026292B200F01AFC0023002200212800FB
:10597000FCF7A3F9C7E70022280000F00FFCA623DC
:105980009B000022EA50002300212800FCF795F933
:10599000B9E728009847DAE7A8239B000022EA54D9
:1059A0002000B6E7AD239B00C3585B69002B08D0ED
:1059B000A7229200825C032A05D12100984700208B
:1059C000A7E70220A5E70220A3E770B50400402363
:1059D00000220021FCF71FF90125AC235B00E550F4
:1059E00040260C33E650253BFF3B0022802120005F
:1059F000FCF711F9A5616662A7239B00E55400231B
:105A0000A5229200A35063601032A350AE239B00E6
:105A1000E358002B06D0AD239B00E3585B680021C0
:105A200020009847002070BD0174002070470000DE
:105A3000A7239B00C15C034A81540422C254002066
:105A40007047C0469D020000A7239B00C35C042B47
:105A500001D000207047024BC25C013BC254F8E702
:105A60009D02000010B5A7239B00C35C032B01D04F
:105A7000002010BDAD239B00C358DB69002BF7D07D
:105A80009847F5E7030000201A78002A03D0013078
:105A9000C0B20133F8E7704710B54B88012B00D036
:105AA00010BDA9239B000122C25000F098FBF7E72C
:105AB0000B7803704B7843708B78CA7812029B186E
:105AC00043800B794A7912029B1883808B79CA79BB
:105AD00012029B18C380704710B504008021FCF7A8
